:020000040000fa
:080000000002040000000000f2
:020000040000fa
:040008000a030000e7
:020000040000fa
:04000c004c030000a1
:020000040000fa
:04001000ac0300003d
:020000040000fa
:040014002a030000bb
:020000040000fa
:040018006c03000075
:020000040000fa
:04001c008c03000051
:020000040000fa
:04002000cc0300000d
:020000040000fa
:04002400c40500000f
:020000040000fa
:04002800c40500000b
:020000040000fa
:04002c00c405000007
:020000040000fa
:04003000c405000003
:020000040000fa
:0400340018040000ac
:020000040000fa
:04003800c4050000fb
:020000040000fa
:04003c00c4050000f7
:020000040000fa
:04004000c4050000f3
:020000040000fa
:04004400f2040000c2
:020000040000fa
:04004800a40500000b
:020000040000fa
:04004c00c4050000e7
:020000040000fa
:04005000c4050000e3
:020000040000fa
:04005400c4050000df
:020000040000fa
:04005800c4050000db
:020000040000fa
:04005c00c4050000d7
:020000040000fa
:04006000c4050000d3
:020000040000fa
:04006400c4050000cf
:020000040000fa
:04006800c4050000cb
:020000040000fa
:04006c00c4050000c7
:020000040000fa
:04007000c4050000c3
:020000040000fa
:04007400c4050000bf
:020000040000fa
:04007800c4050000bb
:020000040000fa
:04007c00c4050000b7
:020000040000fa
:04008000c4050000b3
:020000040000fa
:04008400c4050000af
:020000040000fa
:04008800c4050000ab
:020000040000fa
:04008c00c4050000a7
:020000040000fa
:04009000c4050000a3
:020000040000fa
:04009400ac050000b7
:020000040000fa
:04009800b4050000ab
:020000040000fa
:04009c00c405000097
:020000040000fa
:0400a000c405000093
:020000040000fa
:0400a400bc05000097
:020000040000fa
:0400a800c40500008b
:020000040000fa
:0400ac00c405000087
:020000040000fa
:0400b000c405000083
:020000040000fa
:0400b400c40500007f
:020000040000fa
:0400b800c40500007b
:020000040000fa
:0400bc00c405000077
:020000040000fa
:0400c000c405000073
:020000040000fa
:0400c400c40500006f
:020000040000fa
:0400c800c40500006b
:020000040000fa
:0400cc00c405000067
:020000040000fa
:0400d000c405000063
:020000040000fa
:0400d400c40500005f
:020000040000fa
:0400d800c40500005b
:020000040000fa
:0400dc00c405000057
:020000040000fa
:0400e000c405000053
:020000040000fa
:0400e400c40500004f
:020000040000fa
:0400e800c40500004b
:020000040000fa
:0400ec00c405000047
:020000040000fa
:0400f000c405000043
:020000040000fa
:0400f400c40500003f
:020000040000fa
:0400f800c40500003b
:020000040000fa
:0400fc00c405000037
:020000040000fa
:04010000c405000032
:020000040000fa
:04010400c40500002e
:020000040000fa
:04010800c40500002a
:020000040000fa
:04010c00c405000026
:020000040000fa
:04011000c405000022
:020000040000fa
:04011400c40500001e
:020000040000fa
:04011800c40500001a
:020000040000fa
:04011c00c405000016
:020000040000fa
:04012000c405000012
:020000040000fa
:04012400c40500000e
:020000040000fa
:04012800c40500000a
:020000040000fa
:04012c00c405000006
:020000040000fa
:04013000c405000002
:020000040000fa
:04013400c4050000fe
:020000040000fa
:04013800c4050000fa
:020000040000fa
:04013c00c4050000f6
:020000040000fa
:04014000c4050000f2
:020000040000fa
:04014400c4050000ee
:020000040000fa
:04014800c4050000ea
:020000040000fa
:04014c00c4050000e6
:020000040000fa
:04015000c4050000e2
:020000040000fa
:04015400c4050000de
:020000040000fa
:04015800c4050000da
:020000040000fa
:04015c00c4050000d6
:020000040000fa
:04016000c4050000d2
:020000040000fa
:04016400c4050000ce
:020000040000fa
:04016800c4050000ca
:020000040000fa
:04016c00c4050000c6
:020000040000fa
:04017000c4050000c2
:020000040000fa
:04017400c4050000be
:020000040000fa
:04017800c4050000ba
:020000040000fa
:04017c00c4050000b6
:020000040000fa
:04018000c4050000b2
:020000040000fa
:04018400c4050000ae
:020000040000fa
:04018800c4050000aa
:020000040000fa
:04018c00c4050000a6
:020000040000fa
:04019000c4050000a2
:020000040000fa
:04019400c40500009e
:020000040000fa
:04019800c40500009a
:020000040000fa
:04019c00c405000096
:020000040000fa
:0401a000c405000092
:020000040000fa
:0401a400c40500008e
:020000040000fa
:0401a800c40500008a
:020000040000fa
:0401ac00c405000086
:020000040000fa
:0401b000c405000082
:020000040000fa
:0401b400c40500007e
:020000040000fa
:0401b800c40500007a
:020000040000fa
:0401bc00c405000076
:020000040000fa
:0401c000c405000072
:020000040000fa
:0401c400c40500006e
:020000040000fa
:0401c800c40500006a
:020000040000fa
:0401cc00c405000066
:020000040000fa
:0401d000c405000062
:020000040000fa
:0401d400c40500005e
:020000040000fa
:0401d800c40500005a
:020000040000fa
:0401dc00c405000056
:020000040000fa
:0401e000c405000052
:020000040000fa
:0401e400c40500004e
:020000040000fa
:0401e800c40500004a
:020000040000fa
:0401ec00c405000046
:020000040000fa
:0401f000c405000042
:020000040000fa
:0401f400c40500003e
:020000040000fa
:0401f800c40500003a
:020000040000fa
:0401fc00c405000036
:020000040000fa
:04020000c405000031
:020000040000fa
:04020400c40500002d
:020000040000fa
:04020800c405000029
:020000040000fa
:04020c00c405000025
:020000040000fa
:04021000c405000021
:020000040000fa
:04021400c40500001d
:020000040000fa
:04021800c405000019
:020000040000fa
:04021c00c405000015
:020000040000fa
:04022000c405000011
:020000040000fa
:04022400c40500000d
:020000040000fa
:04022800c405000009
:020000040000fa
:04022c00c405000005
:020000040000fa
:04023000c405000001
:020000040000fa
:04023400c4050000fd
:020000040000fa
:04023800c4050000f9
:020000040000fa
:04023c00c4050000f5
:020000040000fa
:04024000c4050000f1
:020000040000fa
:04024400c4050000ed
:020000040000fa
:04024800c4050000e9
:020000040000fa
:04024c00c4050000e5
:020000040000fa
:04025000c4050000e1
:020000040000fa
:04025400c4050000dd
:020000040000fa
:04025800c4050000d9
:020000040000fa
:04025c00c4050000d5
:020000040000fa
:04026000c4050000d1
:020000040000fa
:04026400c4050000cd
:020000040000fa
:04026800c4050000c9
:020000040000fa
:04026c00c4050000c5
:020000040000fa
:04027000c4050000c1
:020000040000fa
:04027400c4050000bd
:020000040000fa
:04027800c4050000b9
:020000040000fa
:04027c00c4050000b5
:020000040000fa
:04028000c4050000b1
:020000040000fa
:04028400c4050000ad
:020000040000fa
:04028800c4050000a9
:020000040000fa
:04028c00c4050000a5
:020000040000fa
:04029000c4050000a1
:020000040000fa
:04029400c40500009d
:020000040000fa
:04029800c405000099
:020000040000fa
:04029c00c405000095
:020000040000fa
:0402a000c405000091
:020000040000fa
:0402a400c40500008d
:020000040000fa
:0402a800c405000089
:020000040000fa
:0402ac00c405000085
:020000040000fa
:0402b000c405000081
:020000040000fa
:0402b400c40500007d
:020000040000fa
:0402b800c405000079
:020000040000fa
:0402bc00c405000075
:020000040000fa
:0402c000c405000071
:020000040000fa
:0402c400c40500006d
:020000040000fa
:0402c800c405000069
:020000040000fa
:0402cc00c405000065
:020000040000fa
:0402d000c405000061
:020000040000fa
:0402d400c40500005d
:020000040000fa
:0402d800c405000059
:020000040000fa
:0402dc00c405000055
:020000040000fa
:0402e000c405000051
:020000040000fa
:0402e400c40500004d
:020000040000fa
:0402e800c405000049
:020000040000fa
:0402ec00c405000045
:020000040000fa
:0402f000c405000041
:020000040000fa
:0402f400c40500003d
:020000040000fa
:0402f800c405000039
:020000040000fa
:0402fc00c405000035
:020000040000fa
:04030000c405000030
:020000040000fa
:04030400c40500002c
:020000040000fa
:04030800c405000028
:020000040000fa
:04030c00c405000024
:020000040000fa
:04031000c405000020
:020000040000fa
:10040000cf1721000eff24000e018800000000001d
:10041000000020000000e000020032000001200087
:1004200020028800140007004e0207000000e000d0
:1004300003003a00005221000100200002003700b2
:100440000000200001002000810f70000100320038
:100450000f000700000020000000e0000200320052
:1004600000000200000000009813020000000000dd
:100470000040da000000fe00800220000000e000e2
:1004800002003200002020009001880000000600d9
:10049000a1028800800478000000eb001f003700f4
:1004a000e284440054a0b4009905ba00e2844400f8
:1004b00054a0b4009906ba00e284440054a0b400e9
:1004c0000006eb00476fde00fd07b200ae018800ba
:1004d000636ce10003003a000ad801000000eb0061
:1004e0000e003700606ce10008003a00004deb00a0
:1004f0000a05e800020039003420ec000af0a000f0
:100500008b05e900f9ff3e00040037006168e10057
:10051000010032000086eb000b00070019c7ba008b
:100520000e04e0001905ba0003003a000a00e000da
:10053000dbff3a0000000600fe07b200ae028800b2
:100540008a047800f5ff37000cd0a300e20f4d00bd
:100550001c00390089027800354dba000a05e80010
:10056000020039003420ec000af0a0008b05e900fd
:100570000f003200254dba000a05e80002003900dc
:100580003420ec000af0a0008b05e90008003200de
:100590000c00e0000600320015cdba000a05e800a4
:1005a000020039003420ec000af0a0008b05e900bd
:1005b0008984e80054a0b4000b00e000e2ff3a0098
:1005c000000006009902ba00055d78008b05e9007d
:1005d000f7ff3200c82ade00055d78008b05e900d0
:1005e000f3ff32000c00e000f1ff320019ddba0029
:1005f000eeff370080090400000000000000040046
:1006000000000000bc09040000000000e80904002c
:10061000000000003600f800809fbe00829fbe00f0
:10062000849fbe00869fbe000000fa00c028a9007b
:100630000000eb003e0a07000080fa004f03be00f6
:100640004f02be004f01be004f00be003600f90051
:10065000004006003600f800809fbe00829fbe006a
:10066000849fbe00869fbe000000fa00350a070086
:10067000c048a900100020002d0a07000080fa00e1
:100680004f03be004f02be004f01be004f00be0030
:100690003600f900004006003600f800809fbe00da
:1006a000829fbe00849fbe00869fbe000000fa00ad
:1006b000c068a900200020001d0a07000080fa0081
:1006c0004f03be004f02be004f01be004f00be00f0
:1006d0003600f900004006003600f800809fbe009a
:1006e000829fbe00849fbe00869fbe000000fa006d
:1006f000c088a900300020000d0a07000080fa0021
:100700004f03be004f02be004f01be004f00be00af
:100710003600f900004006003600f800809fbe0059
:10072000829fbe00849fbe00869fbe000000fa002c
:10073000c0a8a90040002000fd0907000080fa00c1
:100740004f03be004f02be004f01be004f00be006f
:100750003600f900004006003600f800809fbe0019
:10076000829fbe00849fbe00869fbe000000fa00ec
:10077000c608a90070002000ed0907000080fa00fb
:100780004f03be004f02be004f01be004f00be002f
:100790003600f900004006003600f800809fbe00d9
:1007a000829fbe00849fbe00869fbe000000fa00ac
:1007b0002146800000102000008060000000e00062
:1007c00003003200c508a900c0002000d8090700b6
:1007d0002146800000002800008060000000e0004a
:1007e00003003200c5e8a90080002000d0090700fe
:1007f0002146800000022000008060000000e00030
:1008000003003200c4a8a90090002000c809070016
:1008100020468000700060000000e000030032000d
:10082000c488a900a0002000c1090700ffff37000d
:100830003600f800809fbe00829fbe00849fbe00ed
:10084000869fbe000000fa00e0808000e10f5000ab
:1008500008003a004119800000fc2f000080600071
:100860008001b300401988009e070700208088009f
:100870000200370000e2240020808800f080800021
:10088000e10f500007003a004119800000fc2f00e2
:1008900000806000401988009207070030808800bf
:1008a0000200370000e224003080880000818000d0
:1008b000e10f500008003a004119800000fc2f00b1
:1008c000008060000040a0004019880085070700f4
:1008d000108088000200370000e2240010808800a9
:1008e000a091200040808800a091200050808800c6
:1008f000a0912000608088005091200070808800c6
:1009000050912000808088005091200090808800c5
:100910001180800060808000808f500002003600cf
:1009200055cea9000800370011808000908080001b
:10093000808f50000400310000818000e10f5000e2
:1009400001003a0055cea800218080004080800040
:10095000808f5000020036002d0ea90008003700dd
:100960002180800070808000808f50000400310062
:10097000e0808000e10f500001003a002d0ea80039
:100980003180800050808000808f5000020036004f
:100990002ccea900080037003180800080808000c4
:1009a000808f500004003100f0808000e10f500083
:1009b00001003a002ccea8002d2ea8002ceea80095
:1009c00055eea8000068a9000080fa004f03be00a1
:1009d0004f02be004f01be004f00be003600f900be
:1009e000004006003600f800809fbe00829fbe00d7
:1009f000849fbe00869fbe000000fa0071070700ba
:100a0000a0808800a081800080007800a080800005
:100a1000808f500006003e00a0808000800078009b
:100a2000a081800000805000c0808800080037004e
:100a3000908180008000e800a080800000017800a4
:100a4000a08180000000510000804000c08088002c
:100a5000c180800040818000808050001081800033
:100a600080804000108280000001780011000900a1
:100a70008200d8008000fd0080007800d0818000d6
:100a8000808f500003003c0010002000e0808800b0
:100a9000010037001c30ef00c18080002082800000
:100aa0008080500020818000808040001082800083
:100ab00000017800110009008200d8008000fd00cc
:100ac00080007800e0818000808f500003003c00af
:100ad00010002000f0808800010037001e30ef0079
:100ae000c180800030828000808050003081800092
:100af0008080400010828000000178001100090011
:100b00008200d8008000fd0080007800f081800025
:100b1000808f500003003c001000200000818800fe
:100b2000010037002030ef0000e8a9000080fa0043
:100b30004f03be004f02be004f01be004f00be007b
:100b40003600f900004006000000fa000108a90084
:100b50000080fa00004006000000fa000368a900c7
:100b60000080fa00004006000000fa000388a90097
:100b70000080fa00004006000000fa0003e8a90027
:100b80000080fa00004006000040da000000fe008d
:100b90000a00fa0011002000b1bf9f00c0bf9f00f3
:100ba0006a805700720507004fb897000080fa006e
:100bb000000006000a00fa00e20f500034003e0078
:100bc000a08b8000e10f500003003200e20f5000c4
:100bd00011003a000c003700032220000300e0005f
:100be00001003a000040da002002e2000200350075
:100bf0002822ef0021e2a8002342ab000d003a00ba
:100c00002342a8000b003700032320000300e0006c
:100c100001003a000040da003002e2000200350034
:100c20003822ef0031e2a8003342ab0001003a0065
:100c30003342a800820178000b0037003102fb002c
:100c4000e10f500004003a002322ab00feff3a00ff
:100c500024118800030037003322ab00feff3a0066
:100c6000a41188008301e9000300e000f3ff3a00cb
:100c7000e10f500003003a002302ab00feff3200f8
:100c80000b0037003302ab00feff320008003700d4
:100c900033002000b3bf9f00c0bf9f00d1bf9f00a3
:100ca000e2bf9f006a805700330507006fb99700c5
:100cb000020078000080fa00000006000a00fa0036
:100cc00051002000b1bf9f00c0bf9f006a80570045
:100cd0002b0507005fb897000080fa0000000600af
:100ce000889fbe0080047800d08b80000000e00068
:100cf00004003a000e0007000084eb000000e00052
:100d000008003500d88b80000900e00005003200a3
:100d100009004400060007000000e00001003d005b
:100d20000084eb00080078004f04be0000000600bd
:100d3000800078000100e00003003a00000020007d
:100d4000d08b8800000005000080eb00020020002e
:100d5000828f500002003e00d18b88000000eb0023
:100d60000000060000000500210721006b000700bd
:100d7000800078000080eb000100e00004003500f6
:100d800021072100a0002000020007004f80de00a4
:100d900000000600889fbe008a1f78000004be0085
:100da000c900900069009000808f50000600390053
:100db00009007800b8000700800078000080eb0090
:100dc0000100e00017003500084578004900900058
:100dd00008587800c00498001900780000b8a300f3
:100de00004003a0000a8a30008003200ea4f5400b3
:100df00006003a00090078000d0007008000780026
:100e00000080eb000100e00006003a0000c0200076
:100e1000190060000200320049009000e0049800d0
:100e20000a80fb004f0578004f04be00000006005a
:100e3000889fbe008a1f7800000478000800e00048
:100e40000d003a00080c2100700544008004eb00fe
:100e5000580078000000e00004003200f4ff0700b2
:100e60000000e00001003d008084eb008a0f540088
:100e7000f7ff3a002500370000002200180060004c
:100e80008004eb0021003200a80490000f0037001e
:100e900009015100384090000000fb0089007800f3
:100ea00044ff07000000e00007003c00280090001d
:100eb0004004980060049800500c98001890a0001e
:100ec0008084eb00110037008084440048019000ca
:100ed000828f5400eeff39002800900040049800f3
:100ee0009800780002c020000281600001003a00f2
:100ef0003800900001e8a30002003200600498006e
:100f000001003700500c98008004eb0009007800c5
:100f10004f0578004f04be0000000600889fbe0009
:100f20008a9fbe0080047800010478002c003700fe
:100f3000c800900068009000808f500004003900c5
:100f400008007800540007000000e000370035007a
:100f5000004020001800600009003200a1002000bd
:100f60000900780042000700800578000b00e000cf
:100f700003003200618514000a8545000400370033
:100f80000900780034000700000578008005eb00b8
:100f900048009000e8009000808050008a8f500048
:100fa00002003100010578008005eb000a0178009d
:100fb0008900780021000700480090000a004000e6
:100fc000400498000b00e0000400320008007800a4
:100fd00097ff07000000e00014003a008a844400f4
:100fe0001904e000d2ff3a000080200018006000e1
:100ff00006003200080078008dff070080007800ae
:101000000080eb000100e00009003a0001c0200070
:10101000988060000000eb0005003200480090005e
:10102000600498000000eb00010037000080eb0036
:101030004f05be004f04be0000000600800178008e
:1010400002003700b15978000201e9000200e00017
:10105000fcff3a00000006008000780001017800e3
:101060003104e000fdff3a000000510000000600de
:101070000001eb0000027800b041780081cf510000
:1010800001003a00040178000304e000f9ff3a008f
:101090000200780000000600889fbe008a1f7800ca
:1010a00000047800c8009000680190000000eb0088
:1010b000828f50003c00390018007800220029007f
:1010c00002016000e20f5100070032000120200001
:1010d0000000e0000100350001202400008c7000b9
:1010e0000080eb00300037000200260002006000a4
:1010f000820f500009003a0038009000808f5000a5
:10110000060039000800780049ff070080007800d9
:101110000080eb000100e00023003a001805780091
:1011200000c020000000650018003a00a8049000ec
:101130006002200008004000808f540013003a0035
:101140000020200078020700200498000000e00042
:1011500005003a0029049800490498008904e80031
:1011600039049800080037000a60a0000a0c7800d3
:101170004004980001202000808040003104980045
:10118000400c9800500c98000c00070028009000bc
:101190005004980038009000600498000000260079
:1011a000180c70000000eb004f0578004f04be00e3
:1011b000000006000098200062003700881f7800b9
:1011c000681721001804e00003003a00f9ff070047
:1011d00020c0b300004c78004f04780000000600e7
:1011e000889fbe00000478000800780010ff070008
:1011f0008004780000042000180060000200320023
:10120000280090008f0107000000eb0020049800e8
:10121000384090000004e000050035000000fb00ad
:101220005bfe07000000e000010032008084eb005c
:10123000181090000000e000080032009ffe070038
:101240000000e000010032008084eb0018109000e4
:101250007c0107000000eb0010149800000820003b
:1012600018006000150032000001eb006000b800bb
:101270000202d000230c210003024200940f14004c
:1012800005003a00000040008180480000804100d5
:101290000008eb000600370061004000e0804800d5
:1012a0000201e800e80f5000e08f5800f0ff3a001c
:1012b00008007800630107000e003700000c78007a
:1012c00000c0eb003044980060022000080040009d
:1012d000200498004004980050049800400c9800a6
:1012e00060049800500c9800700498007600440048
:1012f000000c9800090078004f04be0000000600b2
:10130000881f78000004eb006140b800e2ff2f0066
:10131000f3ff2f00e0030700020d210080004100d1
:10132000110078000000e00001003200acff07006f
:101330000804e800e80f5400f3ff3a004f04780077
:1013400000000600010020000100e000090032005a
:10135000010080000100e000060032008100e90089
:10136000010088008100d0000200800082804000df
:101370008008780000000600889fbe000004780006
:101380000100780082047800880178000901780063
:10139000110020005d010700890f5000010032009c
:1013a0000004eb00080078004f04be0000000600b7
:1013b0000000fa00e88157004fb99700210721008b
:1013c000c09b2000cc0007000080fa00000006004f
:1013d000889fbe00000478000203be0081047800ec
:1013e0000802780089017800120020000600be0083
:1013f000f3020700890f5000010032000004eb00e7
:10140000080078004f04be00000006006800fa00e3
:10141000889fbe008a9fbe00800478000104780087
:1014200082057800030578008400780000f92f0019
:101430000f004000e0020700d98f9f00fb8f9f0044
:101440000000eb00a09f9f00e88f9f009a84fb00a4
:101450000904fb008904ea00cf4cde0050022000a2
:10146000800f54000d003200e18f54000b003a0051
:10147000090178008a0078007f889700df8997004b
:1014800003000100f08f9f000000e0009500320093
:101490002f9897000000e800a09f9f0009054500d5
:1014a00050022000800f5400040032000800e000c9
:1014b000e6ff3a002f9897008b0037000000eb0002
:1014c000809f9f00f0979f00e0979f00d0979f001c
:1014d000c0979f00b0979f0007003700a11621001a
:1014e0000100500000004000e11521008080400014
:1014f0004f98970011007000c09f9f000a04780069
:1015000008057800ba4478008900fb00a016210085
:10151000b90107000000e000f0ff3a00a1c2b300eb
:1015200081cf54000e003a008f8897000180e900b7
:10153000808f9f0010007800b09f9f000000e000a7
:1015400005003d000000ea00b09f9f004f98970003
:101550000020a000c09f9f000804e8001000370092
:10156000b09f9f00880078000000eb000500370066
:10157000f3ff2700830f500002003200ea00b90099
:101580000000410001047800880078003101fb0070
:101590000203b100e90f5100f5ff3600b09f9f0034
:1015a000e0c2b300984f1000020032000080eb0050
:1015b00019003700a0c2b300d84f100007003a004e
:1015c0008f8897000180e900808f9f0010007800cd
:1015d000909f9f000804e800100037000000eb0017
:1015e000909f9f008800780005003700f3ff2700d8
:1015f000830f500002003200ea00b90000004100f1
:1016000001047800880078003101fb000203b1007a
:10161000e90f5100f5ff3600909f9f009844780035
:101620008900fb0060152100730107000000e00045
:10163000020032000804e800010037008044eb009b
:10164000a97f9f0080c6b30080cf540006003a00f7
:1016500098cf140010003a0066405000a07f9f0011
:101660000804e8000c003700c0c6b30080cf540067
:1016700009003a0098cf140007003a006740400084
:10168000d84f100002003a006e40500001003700b1
:1016900010c7b300a07f9f001801fb00c3fb2f0001
:1016a0008f81410001f92f008f80400020f92f0029
:1016b0000f004000150007000000e00009003a009c
:1016c000c1fb2f008f80400020f92f000f00400049
:1016d0005f0107000000e000020035000805e80097
:1016e0005aff37000080eb004f05be004f04be00dc
:1016f0000080fa00000006000302780082017800f2
:1017000001017800819e200040ff3700889fbe00c5
:101710008a1f78000004780030c5b300804f510064
:101720000800320030c7b300804f5100050032007e
:1017300051c2b30028089000814f510036003a0092
:10174000330037000869900050c6b300804f510045
:101750001b003a00110178006400510080087800f5
:101760009000900010007800000c9800110c980078
:10177000881190000300e00007003d008081eb002d
:101780000001eb00a90207000001be0088089000dc
:1017900081005100080037000001eb00a3020700a0
:1017a00000817000030032000809900082005000a0
:1017b0000100370088109000410c98001d00370090
:1017c0001180e90080087800100578007a049800fc
:1017d000881490000900e00004003d000a00780031
:1017e0001dfe07008004780007003700090178001b
:1017f0008000eb000a007800f50007000000e00020
:10180000010032008a045000490c9800090037009a
:101810008081410004003700808141000204e00023
:1018200001003a0001417800824978000000e80098
:10183000200c98000000eb004f0578004f04be001c
:10184000000006000000e0002f003200c001780018
:10185000e38f51002c0036000308a3002a003a0051
:10186000918b80000100e00002003200810f5000e7
:101870000400310011009800908b8800160037009a
:1018800082007800110190000200e00002003200a6
:10189000800f5100faff3900110278008482400065
:1018a000850f500018003900808f520003003a0065
:1018b0008308420001007800070037000200e000c2
:1018c0000300320083014000830f51000e003900f5
:1018d0001200980090009800900090000100e00035
:1018e0000900320010014000828f500006003a00cb
:1018f000021721000009eb001001780011084100d7
:10190000910090001100980000000600889fbe0022
:101910008a9fbe008c9fbe008e1f78000006780054
:101920000104780002007800830478008881b900ff
:10193000020778000e00e000420032000800e000dc
:10194000410032008e057800c900900069009000c7
:10195000808f50000400390009007800cefd070098
:101960000000e00029003500004020001900600060
:101970000a0032000b017800a10020000c00780062
:1019800093000700800678000d00e000060032009a
:10199000610516000a854600040037000b05780033
:1019a0008006eb00010037000b057800490090002d
:1019b000e9009000808050008a8f500002003100c2
:1019c000010578008006eb000a0178008c007800a1
:1019d0009afd07008a855500490090000a004000e2
:1019e000c00498000d00e0000400320009007800f7
:1019f0000ffd07000000e00004003a000b00e000cb
:101a0000020032000a064600cfff370000802000a7
:101a100019006000020032000900780004fd070090
:101a200000c0200019006000020032004900900050
:101a3000e00498008b055700110009008885d80044
:101a4000010037000000eb004f0778004f06be0092
:101a50004f05be004f04be0000000600889fbe0078
:101a600000047800818b80000100e0000200320059
:101a7000010078000d003700918b800020172100b5
:101a800004003700910f5400250036000180e80063
:101a9000910090000100e000faff3a0010003700ca
:101aa000920f54001e0036000280e80010017800fa
:101ab0000200e000faff3a0011017800918b8000eb
:101ac0002017210004003700910f54001400360045
:101ad0000180e80091009000828f5000faff3a00e8
:101ae000c98b8000888f5400010031008804780081
:101af000090078004c0007000000e00004003a00f4
:101b0000888f5400050032008904d100f5ff3700aa
:101b1000091878004bff0700d2ff37000000eb00e8
:101b20004f04be0000000600881f780063044000d8
:101b30000800a1008000eb00800f54002100360057
:101b4000e30f540001003e00480020000800780028
:101b5000c2ff07008000eb000000e0001900320027
:101b6000900078009101780064815100880f510045
:101b700003003100110190000208780007003700cf
:101b8000088140000208780091019000130198003c
:101b900010017800110914008808780010017800fd
:101ba0000000eb000200e00004003200920190000f
:101bb0000300e000010032000280e800808b880012
:101bc0008180e800010078004f04780000000600e2
:101bd00003003700b0cf1000050032000201e90019
:101be000800178000200e000faff3a0000000500e2
:101bf0000300780000000600020037000304e00044
:101c0000060032000001780002007800b041780040
:101c100081cf5100f9ff3a00010037000001eb00cd
:101c20000200780000000600800078000000eb0051
:101c30000100e000050034000100780028fc0700e6
:101c4000e10f400001003a000000eb000000060038
:101c50000400fa00889fbe008a9fbe008c1f780097
:101c60000004780001067800a8149000280890006d
:101c70008084540038089000808454004808900004
:101c800080845400580890008084540068089000b4
:101c90008084540078089000808454000002220060
:101ca00090bf9f0000032300a0bf9f00381090004a
:101cb0000028a30015003a000900e00013003400da
:101cc000090578008a057800e20f5500010036000a
:101cd0002b002000c80190000b017800ee80570017
:101ce0006800900003000100600498000000e0001c
:101cf000aa003200181090000b0040001014980049
:101d00000b0555004240a900eeff3c002809900059
:101d10000200e0000c003400c80190008c00780044
:101d20006800900003000100600498008080eb00d0
:101d30000000e0009a0032009810900028089000ff
:101d40000080400010149800380d90000a00e00058
:101d5000110034008a057800e20f550001003600ba
:101d60002b002000c80190000b017800ec80570088
:101d70006800900003000100600498000000e0008b
:101d800086003200181090000b00400010149800dc
:101d90000b055500edff370008699000c80890005a
:101da00050c6b300804f510008003a000100e00027
:101db000150034005802900008099000980990001e
:101dc0006800900004000100070037000100e000f7
:101dd0000d003400c801900001017800f800900067
:101de0006800900003000100600498008080eb0010
:101df0000000e0006a00320098109000480890004f
:101e00000080400010149800580d90000a00e00077
:101e1000110034008a057800e20f550001003600f9
:101e20002b002000c80190000b017800ec805700c7
:101e30006800900003000100600498000000e000ca
:101e400056003200181090000b004000101498004b
:101e50000b055500edff37000869900068089000f9
:101e600051c6b300814f51000d003a000000e00060
:101e70001c00340078019000c80890000101410066
:101e80006111b800828fd2008381d2005802900085
:101e9000800078006800900004000100090037000d
:101ea0000000e0000f00340078019000c8089000a6
:101eb00081004100c8019000000178006800900096
:101ec00003000100600498008080eb000000e00047
:101ed00033003200981090006808900000804000a5
:101ee00010149800780d90000a00e00011003400f2
:101ef0008a057800e20f5500010036002b00200013
:101f0000c80190000b017800ec8057006800900039
:101f100003000100600498000000e0001f00320090
:101f2000181090000b004000101498000b0555008d
:101f3000edff3700381090008000eb000028a30070
:101f4000170032000900e000150034000905780090
:101f5000e28f5400010036002a002000c8019000e2
:101f60000a017800ee80570068009000030001002d
:101f7000600498000000e000080032001810900093
:101f80000a004000101498008a8454004240a900be
:101f9000eeff3c008000eb00010037008080eb008a
:101fa000010078004f0678004f05be004f04be00c8
:101fb0000080fa000000060001087800000006001a
:101fc000e6874700889fbe008a9fbe008c9fbe00a8
:101fd0008e1f780082bf9f00040478008299b900a8
:101fe000f2b79f000200e000590032000fb99700dd
:101ff0000200e000570032000006be007fb79700e5
:10200000c800900068009000808f500004003900e4
:102010000800780020fc07000000e0003b003500cd
:1020200000402000180060000a0032008e01780095
:10203000a20020000c00be007c0007000005be00ce
:1020400000807500070032008c0455008904e80008
:10205000050037008e0478000a0020000b002000e5
:10206000010037008e04780048019000680090005d
:1020700002005000890f50000300310080047800f6
:102080000a0020000b0020006111b800828fd200ee
:102090008381d200090278000c00be003a000700dc
:1020a00009075700480090000900400040049800cc
:1020b0000a85750004003200080078005cfb070008
:1020c0000000e00011003a000e00e0000f003200b6
:1020d0006148b800808fd2008180d2000000780073
:1020e00000f0a1000c01d0008001d00003064100e7
:1020f0004220a80081864e004200a9004220ae0086
:102100004200a8000c86d300bdff370000802000ed
:1021100018006000020032000800780044fb07004d
:1021200000c020001800600002003200480090004b
:10213000600498007fb197000e0751000fb9970017
:10214000110009000287d8008001780001003700e3
:102150008001eb00030078004f0778004f06be00b7
:102160004f05be004f04be006f00b1000000060026
:1021700000c0da000000060000c0da00000006001f
:1021800000c0da00000006003400f8003200f80059
:102190000203be00820270008502720002f0a600f7
:1021a0008301e800a301880000f0a6008100e80098
:1021b000910188001500b2000c003200104978002f
:1021c0000402e900150032006101410002003900fb
:1021d0003420ec000200280061004000f7ff3900c5
:1021e0003220ec0000002800f4ff370010097800ce
:1021f0000482e90009003200620141000200390056
:102200003420ec000200280062004000f7ff390093
:102210003220ec0000002800f4ff37003200f90003
:102220003400f9000601be00000006000300e000d3
:10223000070032009501800001d0fe0010427800b6
:1022400005d0fe000402fb00820f52001100320094
:102250008301e9009501800001d0fe001042780062
:1022600005d0fe000404e0000800320000027800ff
:102270001000b00000026a004260af0000f0a00051
:102280000482d2000180b000e8ff37000000200087
:102290000100200000000600020ab900001bb9007e
:1022a0000200b800810042008100430000000600e7
:020000040000fa
:1022b00052630000763a00002573000000450000dc
:1022c00073740000616200006c69000073680000b4
:1022d000696e000067200000636f00006e740000ec
:1022e00061630000742e00002e2e000000410000eb
:1022f0004243000044450000444600002100000025
:020000040000fa
:102300000000fa0031e2a90031a2a9003182a9003f
:102310003162a90081118000f0cf2f0000806000a1
:102320008011880030e2a90030c2a90030a2a900c3
:102330003082a9003062a9008111800090ff2f0037
:1023400000806000801188003002a900148ea9006e
:102350009133800000fc2f00008060003000b3004b
:1023600090338800a00f2000c011880033e2a9003c
:1023700033c2a90033a2a9003362a9003342a900e5
:102380003322a9003302a90091118000f0f32f003d
:10239000008060009011880032a2a9003282a9005a
:1023a0003262a9003242a9003222a9003202a900f9
:1023b00071428000f0ff280080806000000026004d
:1023c000010070007042880003e8a90023e8a8001b
:1023d0000080fa00000006000000fa0031e2a800c8
:1023e0003342a8000080fa00000006000000fa0056
:1023f00090118000610060000000e00002003a00df
:102400000000eb002500370080818000b1118000c2
:1024100081407800220d2100000041000148780031
:1024200080818000210d2100008040001040780054
:10243000ea4f50000600320080818000210d21000b
:102440000080400010407800ed4f50000f003a002f
:10245000808180000000e800210d21000080400004
:102460008040eb0001487800200d2100801f78009b
:1024700080152900801f7800cdfb0700e4875700f6
:102480003030ef0010002000040037008081800011
:102490000000e800808188000000eb000080fa0066
:1024a000000006000000fa00f01529002efa0700cf
:1024b0000000000090118000610060000000e0005a
:1024c000fcff320000000000b11180001004200069
:1024d000808f5000fcff3a000080fa0000000600e8
:1024e0000000fa004382a9004362a8004342a8000a
:1024f00042a2a8004322a9004302a90042c2a800a8
:102500001112800030fe2f00008060008001b300b7
:102510001012880011128000c0ff2f0000806000a0
:102520000000a000101288004822ef0041e2a8003d
:102530000148a9002148a9000080fa000000060017
:102540000000fa000421ef000021ef00803e20008f
:102550001008880021088000f0fc2f000080600037
:102560002008880001428000000027000100700060
:10257000004288000068a9002068a80005e1a800c2
:102580000080fa00000006000000fa001021ef00b1
:102590000621ef0080132000600888008108800079
:1025a000f0fc2f00008060000050a0008008880030
:1025b00011428000000027000100700010428800d6
:1025c00000e8a90020e8a80011e1a8000080fa00b6
:1025d000000006000000fa001221ef000a21ef00bf
:1025e00090d023007008880091088000000320002c
:1025f0000100700090088800204280007000b30045
:10260000204288000108a90020e8a8009008800066
:102610000080fa00000006000000fa001e21ef0012
:102620001421ef0090d02300d0088800f10880002a
:102630000003200001007000f00888006142800063
:102640000000270001007000604288000368a900b4
:102650002368a800f00880000080fa00000006004f
:102660000000fa002021ef001821ef0090d0230095
:10267000e0088800010980000003200001007000cc
:1026800000098800704280007000b300704288002a
:102690000388a9002388a800000980000080fa00b0
:1026a000000006000400fa00100798000000eb008c
:1026b000000f78000000eb00000f780003003700e7
:1026c00027000900000000001e0fe8009e007800af
:1026d0001e009000808f5000f9ff39000080fa0042
:1026e000000006000000fa002023a80000052000da
:1026f00001002000000207002023a90000000000c4
:1027000000198000610060000000e000fcff320062
:10271000001880000080fa00000006000000fa00a7
:1027200028000700a08088000080fa000000060052
:102730000000fa0020002000a08b8800e5010700bf
:10274000effe070024ff07007dff07008eff070054
:1027500015cea90015eea900288ea90028cea90043
:1027600028eea900290ea900292ea90029aea9004a
:1027700051cea90051eea90078cea800790ea9008b
:102780002c8ea9002daea8002ccea9002ceea900fd
:102790002d0ea9002d2ea90055cea90055eea90099
:1027a0007ccea9007d0ea80043010700c1e8a90066
:1027b000980107004aff0700701729006af907000f
:1027c000ffff37000000fa002daea8001000200027
:1027d00001002000c80107002daea9001000200054
:1027e00001002000c40107004822ef0000000000a3
:1027f00000128000610060000000e000fcff320079
:102800004012800000808800008080004400de00cc
:102810000080fa00000006000000fa00003a800084
:102820000080fa00000006000200fa00faff07002c
:10283000000f78001e007800240007000004e0006c
:102840000200320000002800710007001e0078001e
:102850002a0007000004e00002003200000024000b
:102860006b0007001e007800320007000004e00043
:102870000200320000202000650007001e007800e2
:102880003a0007000004e0000200320000082000c7
:102890005f0007001e007800420007000004e0000f
:1028a0000200320000042000590007001e007800da
:1028b0004a0007000004e00002003200000120008e
:1028c000530007000080fa00000006000400fa0030
:1028d000100798000040eb00004f78001e009000a9
:1028e0000000e00002003d0010c0b300004f78007f
:1028f0001e4078000080fa00000006000400fa0084
:10290000100798000040eb00004f78009e009000f8
:1029100000002400008060000000e000020032009f
:1029200010c0b300004f78001e4078000080fa000d
:10293000000006000400fa00100798000040eb00b9
:10294000004f78009e009000002020000080600072
:102950000000e0000200320010c0b300004f780019
:102960001e4078000080fa00000006000400fa0013
:10297000100798000040eb00004f78009e00900088
:1029800000082000008060000000e000020032002b
:1029900010c0b300004f78001e4078000080fa009d
:1029a000000006000400fa00100798000040eb0049
:1029b000004f78009e00900000042000008060001e
:1029c0000000e0000200320010c0b300004f7800a9
:1029d0001e4078000080fa00000006000400fa00a3
:1029e000100798000040eb00004f78001e00900098
:1029f000700060000000e0000200320010c0b30070
:102a0000004f78001e4078000080fa0000000600a9
:102a10000200fa00000f78009e80ea00003a800071
:102a200000806000003a88000080fa000000060084
:102a30000000fa004027ef000080fa0000000600c6
:020000040000fa
:102a40003611000020000000800000004810000047
:102a50000200000082000000ffff0000d210000012
:102a60006400000080000000001000003200000040
:102a700080000000321000001600000082000000fc
:102a8000ff07a90001831600343e6e00006e0000af
:102a90006e000f00000001005500ab0000000000b8
:102aa000741100000200000082000000010000001c
:102ab0004a100000880000008200000001000000b1
:102ac0000070100071107000107010007010700015
:102ad0001060100000000000000000000000000076
:102ae00000000000000000000000000000000000e6
:102af0000002080001019800109910009810980039
:102b000010981000981088001000000000000000cd
:102b100000000000000000000000000000000000b5
:102b2000000000000000020008020200c010c10006
:102b300010c01000c010c00010c01000b010000085
:102b40000000000000000000000000000000000085
:102b50000000000000000000000000004a107200a9
:102b6000109a1000000000000000000000000000ab
:102b7000000000007611000002000000800000004c
:102b8000561100001a00000082000000686a6c0004
:102b9000747a4c00000001000002000004000800ec
:102ba00000100000000020002b2d2300300000004a
:102bb0007811000002000000820000000400000004
:102bc0007011000004000000800000007a11000075
:0c2bd00002000000800000000000000077
:020000040000fa
:102bdc000000fa00042eef00182eef002c2eef0050
:102bec00402eef00542eef00682eef007c2eef00ed
:102bfc0030f92100007088000080eb00a070880084
:102c0c00f0ff23004071880000162000e07188005e
:102c1c0000002f0080728800300020002073880094
:102c2c00003c2000c07388000c2eef00202eef001b
:102c3c00342eef00482eef005c2eef00702eef00cc
:102c4c00842eef000a2eef001e2eef00322eef0026
:102c5c00462eef005a2eef006e2eef00822eef0064
:102c6c00062eef001a2eef002e2eef00422eef0054
:102c7c00562eef006a2eef007e2eef0030e9210079
:102c8c00707088003038200010718800f0ff200030
:102c9c00b071880000002f00f0728800003c20000a
:102cac00307488000080fa00000006000000fa0072
:102cbc00803e200020608800282cef00482cef007c
:102ccc00682cef00262cef004006200030628800b4
:102cdc0040062000306388006a2cef0050638000af
:102cec005062880050628000506188006c2cef00ac
:102cfc0060638000606288006062800060618800b0
:102d0c0000402c0010638800106380001062880063
:102d1c001062800010618800602cef00006380005e
:102d2c000062880000628000006188003000200092
:102d3c00206388002063800020628800206280006d
:102d4c00206188001160800080ff2f0000806000ef
:102d5c000010a0001060880001eca8000080fa00b0
:102d6c00000006000000fa0000102300203a880042
:102d7c004827ef004e27ef0060022000303a880011
:102d8c006027ef006227ef006427ef006627ef0053
:102d9c006a27ef006c27ef006e27ef00320020004f
:102dac0080072000a109200033742000804978009e
:102dbc0081497800824978001200200060042000cc
:102dcc007105200023742000804978008149780027
:102ddc008249780000000000103a80006100600019
:102dec000000e000fcff3a0000000000113a8000f7
:102dfc0000022000008060000000e000fbff3200b9
:102e0c000080fa00000006000000fa00862eef0099
:102e1c0030748000f0728800f0728000b07188000d
:102e2c00b071800010718800107180007070880083
:102e3c0086cea8000e0ea8000e8ea800872ea80025
:102e4c002023ef002143a8002223ef00f0002000f4
:102e5c00201988003223ef004119800000fc2f005c
:102e6c00008060003001b300401988002623ef0079
:102e7c002e23ef003023ef0021e3a80040012000b7
:102e8c0005fe07000080fa00000006000200fa00b0
:102e9c00000f780021028000200f200000806000cd
:102eac001e007000200288000080fa00000006005e
:102ebc000000fa00c3e8a8000000000000000000b9
:102ecc000080fa00000006000000fa0040ff070036
:102edc00a4ff07001f000700f5ff070000022000f9
:0c2eec00eaff07000080fa00000006006a
:020000040000fa
:102ef800f03fb1000180b10006003500ee03090083
:102f080000000000403fb1000180b100fbff3d0020
:102f18001000b000203fb00002003500008009001a
:082f280000000000000006009b
:020000040000fa
:102f30000200fa00000f78009e00780041828800ad
:102f4000ffff37000000fa006013210080077800bf
:102f5000e0142100000188000080fa000000060053
:0c2f60000000fa000080fa0000000600eb
:020000040000fa
:020000040005f5
:04570000ffffff00a8
:020000040000fa
:020000040005f5
:04572000ffff000087
:020000040000fa
:020000040005f5
:0457300078ff0000fe
:020000040000fa
:020000040005f5
:045738007aff0000f4
:020000040000fa
:020000040005f5
:0457400090ff0000d6
:020000040000fa
:020000040005f5
:04574800ffff00005f
:020000040000fa
:020000040005f5
:04575000ffff000057
:020000040000fa
:020000040005f5
:04575800000000004d
:020000040000fa
:020000040005f5
:045760000000000045
:020000040000fa
:020000040005f5
:04576800000000003d
:020000040000fa
:020000040005f5
:045770000000000035
:020000040000fa
:020000040005f5
:04577800feff000030
:020000040000fa
:020000040005f5
:04578000feff000028
:020000040000fa
:020000040005f5
:04578800ffff00001f
:00000001FF
